:020000040800F2
:10000000A805002001010008792F00082527000815
:10001000752F0008B9060008513C000800000000D8
:10002000000000000000000000000000393C000853
:10003000BD06000800000000353C00083D3C0008FB
:100040001B0100081B0100081B0100081B01000820
:100050001B0100081B0100081B0100081B01000810
:100060001B0100081B0100081B0100081B01000800
:100070001B0100081B0100081B0100081B010008F0
:100080001B0100081B0100081B0100081B010008E0
:100090001B0100081B0100081B0100081B010008D0
:1000A0001B0100081B0100081B0100081B010008C0
:1000B0001B010008453C00081B0100081B0100084B
:1000C0001B0100081B0100081B0100081B010008A0
:1000D0001B0100081B0100081B0100081B01000890
:1000E0001B0100081B0100081B010008DFF80CD0F1
:1000F00000F0AAFA00480047553C0008A805002077
:100100000648804706480047FEE7FEE7FEE7FEE7B1
:10011000FEE7FEE7FEE7FEE7FEE7FEE7413C0008FC
:10012000ED000008F0B480EA0102D40F4200B2EB07
:10013000410F02D20246084611464A0042D0C30D82
:10014000DDB2C1F3C752AD1A202D35DAC1F3160165
:1001500041F4000204B15242C5F1200602FA06F150
:100160002A411044B3EBD05F23D0C4B1012DA0EBE2
:10017000C35009DCF0BC4FF0004202EAC352DBB2CC
:1001800000F5000000F0D4B9400000F1807000EBF1
:10019000C350A0F1807040EAD170490009E04908DD
:1001A00041EAC071A0EBC35000F50000400800EB2D
:1001B000C350F0BC00F0B3B96142012202EB41012F
:1001C000001BF6E7F0BC704781F00041AAE780F021
:1001D0000040A7E780EA010210B502F000434000AA
:1001E00022D04A001FD0010E01EB1261C0F356006D
:1001F000C2F3560240F4000042F40002A0FB0220C9
:1002000000047F39140400D0401C50EA124001D48D
:100210004000491EC2B20C0604EBD010401C40083E
:10022000802A02D003E0002010BD20F00100002948
:1002300000DA0020184310BD2DE9FE4F81EA0304C7
:1002400004F0004421F0004100944FF0000B23F033
:10025000004350EA01045ED052EA03045BD0C3F3CA
:100260000A54C1F30A552C44A4F2F3340194A0FBC0
:100270000254C1F3130141F48011C3F3130343F497
:10028000801301FB024400FB034E840A970A44EAF0
:10029000815447EA8357A4FB076802958D0A05FB42
:1002A00007854FEA932C04FB0C542705029D4FEA67
:1002B000065847EA1637B5EB08056EEB070C870EB4
:1002C000920E47EA811742EA8312A7FB0201B6EBBE
:1002D0000B0164EB00042B0D43EA0C335E1844EB76
:1002E0001C50DA465146E7FB0201C5F313044FEAFE
:1002F0000B3343EA14534FEA0432019C43EA0603EA
:10030000A4F10C040294009CCDE900B400F04DF976
:1003100003B0BDE8F08F00200146F9E72DE9F04D6C
:1003200081EA030404F0004B21F0004514464FF02D
:10033000000A23F0004150EA050220D054EA0102ED
:100340001DD0C5F30A570246C5F31303C1F31300CA
:10035000C1F30A5640F4801543F48013A7EB060856
:10036000101BD64608F2FD3873EB050002D308F1E6
:10037000010801E092185B41B8F1000F03DA002098
:100380000146BDE8F08D00204FF4801106468446FA
:100390000EE0171B73EB050705D3121B63EB050378
:1003A00006434CEA010C49084FEA300092185B41C1
:1003B00050EA0107EDD152EA030012D082EA0400AC
:1003C00083EA0501084305D0101BAB4106D2012288
:1003D000002306E000224FF0004302E06FF001022C
:1003E00053101AEB06004CEB085110EB0A0041EBDE
:1003F0000B01BDE8F04D00F0C9B8002801DBC0F1E9
:100400000040002901DBC1F10041814201D80120F7
:10041000704700207047002801DBC0F10040002930
:1004200001DBC1F10041814201D20120704700206F
:100430007047002801DBC0F10040002901DBC1F159
:100440000041814201D30120704700207047C10F55
:1004500080EAE0700844CA079623002100F068B8DB
:1004600096230022114600F063B80EB5C10F80EA52
:10047000E0700844CA07002140F233438DE80E00C3
:100480000A460B4600F091F803B000BD00F00042B0
:1004900020F00040C10DC0F3160040F400007F2999
:1004A00001DA00207047962903DCC1F19601C840AB
:1004B00001E096398840002AF4D04042704720F08D
:1004C0000040C10DC0F3160040F400007F2901DA9E
:1004D00000207047962903DCC1F19601C84070479F
:1004E00096398840704701F0004330B421F0004154
:1004F00050EA010206D00A0DA2F56072C1F31301A1
:10050000002A02DC30BC00207047440F44EAC104DA
:10051000C100E01830BC00EBC250AFF300800029EE
:10052000A8BF7047401C490008BF20F00100704779
:1005300010B4B0FA80FC00FA0CF050EA010404BFD9
:1005400010BC704749B1CCF1200421FA04F411FA2F
:100550000CF118BF012121430843A3EB0C01CB1D73
:100560004FEA00614FEA102042BF002010BC7047E4
:1005700000EBC35010440029A4BF10BC7047401CBE
:10058000490008BF20F0010010BC704710B5141ED0
:1005900073F1000408DA401C41F1000192185B413C
:1005A0001A4301D120F0010010BD2DE9F04D924613
:1005B0009B4611B1B1FA81F202E0B0FA80F220322A
:1005C000904600F059F804460F4640EA0A0041EA16
:1005D0000B0153465A46084313D0114653EA010013
:1005E00019D0C8F14002504600F055F805460E46B5
:1005F00050465946424600F03FF8084305D00120D6
:1006000004E020463946BDE8F08D0020054346EA67
:10061000E0762C4337430A986305E40AA0EB080010
:100620000022FD0A44EA47540A3002D50020014660
:10063000E9E7010510196941DDE90845001969413B
:10064000BDE8F04DA2E700001CB50948009009483C
:1006500001900546009C06E0E06840F0010394E844
:10066000070098471034AC42F6D3FFF743FD000073
:10067000A8460008C8460008202A04DB203A00FAF1
:1006800002F1002070479140C2F1200320FA03F3E9
:10069000194390407047202A04DB203A21FA02F0E7
:1006A0000021704721FA02F3D040C2F120029140AC
:1006B0000843194670470000FEE70000704700003D
:1006C000EFF3108072B600BFFEE70000B0B504463D
:1006D00000F01EF9054640F20000C2F2000000786A
:1006E000611C18BF044400BF00F012F9401BA04277
:1006F000FAD3B0BD2DE9F04F82B00E68002E00F0A5
:10070000FD8041F20042C4F20102042340F2004E97
:10071000904208BF03234FF6FF7CC4F2010E009302
:1007200000240123C1F2100C4FF0000A4FF0000921
:100730004BE000BF41F20002C4F20102009F904270
:1007400008BF022704F00C030F229A402BEA020292
:1007500007FA03F34FEA9A051A4346F825204E6834
:1007600040F20C45F202DEF8082054BF22EA0802EB
:1007700042EA0802C4F20105CEF808202A68B30252
:1007800054BF22EA080242EA08022A60B303DEF8F4
:10079000042054BF22EA080242EA0802F303CEF81A
:1007A0000420DEF800204FF0010354BF22EA0802C3
:1007B00042EA0802CEF800200E680AF1010A36FA71
:1007C0000AF204F1040400F0998003FA0AFB16EA25
:1007D0000B08F1D04E68664512DC122E56D8DFE8C1
:1007E00006F0350B4D4955555555555555555555EB
:1007F00055555545510000BFD1F80C9046E000BF5B
:100800004FF6FF72C1F2210296420FDC0022C1F2C4
:10081000110296421AD00022C1F21202964215D05D
:100820000022C1F22102964210D02FE00022C1F234
:10083000220296420AD00022C1F23102964205D02D
:100840000022C1F23202964220D100BF8A684AB12A
:10085000012A14BFC0F814B0C0F810B04FF0080956
:1008600014E000BF4FF0040910E000BFCA6802F1B5
:1008700004090BE04FF0000908E000BFCA6802F16C
:10088000080903E0CA6802F10C0900BF02462646C7
:10089000B8F5807F24BF0432203E17680F25B5408D
:1008A00027EA050509FA06F635431560CA79D20626
:1008B0007FF582AF41F21803C4F202031A68AEF565
:1008C0007E7642F001021A601A6802F0010201927B
:1008D000019A2AF0030256F802B040F60002C4F270
:1008E0000102904208D040F60042C4F20102904258
:1008F0007FF420AF012725E7002723E702B0BDE8FA
:10090000F08F0000002A08BF090401617047000051
:1009100040F2A410C2F2000000687047002804BF33
:1009200001207047F0B581B0044690F83D0028B929
:10093000002084F83C00204600F050F9242084F880
:100940003D002068016821F001010160016841F467
:1009500000410160016821F40041016000F008FBE2
:10096000636848F2A16CC0F2010C40F60011C0F2BD
:100970003D0163453CBF48F28041C0F21E01884200
:1009800002D2012001B0F0BD4DF68361C4F21B31EB
:10099000A0FB01122168970CD1F804E04FF4967681
:1009A0002EF03F0545EA92454D60774348F63816EC
:1009B0000D6AC0F24106A7FB067625F03F076345A6
:1009C00038BF960C721C3A430A62CA6948F2A066A4
:1009D0004CF6FF77C0F20106B34222EA07020BD8B9
:1009E00001385B00B0FBF3F001306FF31F300428D7
:1009F00098BF04201BE000BFA768013857B1192732
:100A00007B43B0FBF3F001306FF31F3070B100F5A2
:100A1000804007E003EB4303B0FBF3F001306FF3DA
:100A20001F3018B100F5004001E000BF0120104365
:100A3000C8610868D4E9072320F0C00010431843B8
:100A40000860886848F2FF3204F10C0790438CCFAD
:100A500018431043A6698860C86820F0FF00384337
:100A60003043C860086840F0010008600020202181
:100A7000206484F83D10206384F83E0001B0F0BD8E
:100A80002DE9F04383B0994616460F460446FFF71A
:100A90003FFF94F83D10202924D10546206800BF6F
:100AA000816989071AD5FFF733FF411B20681A298E
:100AB000F6D381698907F3D500202021206384F8CB
:100AC0003D1084F83E00216C41F02001216484F83F
:100AD0003C00022003B0BDE8F08300BF94F83C1056
:100AE000012903D1022003B0BDE8F083012284F87C
:100AF0003C200368DDE90B180A9ADB0703D1036881
:100B000043F001030360036823F4006303602120C2
:100B100084F83D00402084F83E000020206462629A
:100B20006185608D394620850020CFF6FF70E06238
:100B3000204632464B46CDE9008501F0F5FD18B15F
:100B4000012003B0BDE8F083208D98B920464146CE
:100B50002A4601F04DFE88B3206C0428F0D12068AD
:100B6000016841F400710160012003B0BDE8F08329
:100B70000004EBD0204641462A4601F0E9FF002858
:100B8000EAD1616A2268084610F8013B1361238D9F
:100B90006062581E2085678D013F678557697F0712
:100BA000E6D50704E4D048781061881C6062981E7E
:100BB0002085618D01396185DAE700BF2068016811
:100BC00041F400710160202084F83D00002084F889
:100BD0003E0084F83C0003B0BDE8F08310B586B059
:100BE000016845F20040C4F2000081424FF000016C
:100BF000CDE90411CDE9021102D006B010BD00BF4D
:100C000041F21804C4F20204216800F5384041F0B2
:100C100008012160216801F0080101910199C021BA
:100C20000291122103910321059102A9FFF762FDB0
:100C3000606840F400106060606800F4001001908B
:100C4000019806B010BD000040F2000040F2A4116F
:100C5000C2F20000C2F2000100780A681044086085
:100C60007047000080B542F20000C4F20200016843
:100C700041F010010160032000F08CF80F2000F01B
:100C800005F800F027F8002080BD000070B540F2A4
:100C90000006C2F2000640F220013278C2F20001E2
:100CA0004FF47A730968B3FBF2F20446B1FBF2F138
:100CB000084600F085FB0F2C4FF0010508D838B925
:100CC0004FF0FF3021460022002500F037F8746015
:100CD000284670BD82B041F21800C4F202000168DB
:100CE000022241F001010160016801F0010101915E
:100CF0000199416841F080514160406800F08050A6
:100D0000009000980420C4F20100016862F31A61A7
:100D1000016002B070470000002848BF704700F033
:100D20001F01012202FA01F11C2202EAD0004EF258
:100D30000012CEF2000281507047000010B54EF64E
:100D40000C5CCEF2000CDCF80030C3F3022E8EF007
:100D50000704042C28BF0424BEF103034FF0FF3E18
:100D60000EFA04F438BF0023A14399400EFA03F3AE
:100D70009A43114300F00F0200F160430901043A65
:100D800003F564436244002848BF02F10C03197064
:100D900010BD00004EF60C51CEF200010A684FF66D
:100DA000FF031A4060F30A2242F0806040F0FD70B9
:100DB00008607047002804BF012070472DE9F04308
:100DC00081B042F20008C4F202080446D8F80000DC
:100DD0000D4600F0070081420CD9D8F8000020F041
:100DE00007002843C8F80000D8F8000000F007000A
:100DF000A8426CD1206841F204098107C4F20209BB
:100E000017D5410705D5D9F8001041F4E061C9F8BC
:100E10000010010705D5D9F8001041F46051C9F858
:100E20000010D9F80010A26821F0F0011143C9F8B0
:100E30000010C00742D1D8F8000000F0070085423A
:100E40000CD2D8F8000020F007002843C8F80000B2
:100E5000D8F8000000F00700A84238D12068410708
:100E600007D5D9F80010E26821F4E0611143C9F810
:100E70000010000708D5D9F80000216920F460505F
:100E800040EAC100C9F80000D9F8002002F00C00C7
:100E9000082841F20020C0F27A004DD144F2686384
:100EA000C2F38341C0F60003595CD20338D440F644
:100EB0000010C0F23D0048433EE000BF606859F8B2
:100EC000041C022808D0012826D1890306D4012059
:100ED00001B0BDE8F08300BF8901F8D5D9F8001052
:100EE00021F003010843C9F80000FFF711FD064691
:100EF00041F28837D9F80000616800F00C00B0EBCF
:100F0000810F98D0FFF704FD801BB842F2D903206F
:100F100001B0BDE8F08300BF8907D8D5DEE700BF88
:100F2000D9F8002044F26663C2F34042C0F60003E1
:100F30009A5C4843B0FBF2F0D9F8001043F64662E1
:100F4000C1F30311C0F60002515C40F2200220FA06
:100F500001F140F20400C2F200000068C2F2000297
:100F60001160FFF793FE002001B0BDE8F0830000A0
:100F700040F2200041F20401C2F20000C4F202017A
:100F80000068096843F65662C1F30221C0F6000208
:100F9000515CC8407047000040F2200041F204015B
:100FA000C2F20000C4F202010068096843F656620A
:100FB000C1F3C221C0F60002515CC8407047000076
:100FC000002804BF012070472DE9F04182B004469B
:100FD000007841F20006C007C4F202060CD0706827
:100FE00000F00C00042840F081803068800303D5B5
:100FF0006068002800F04681207880071BD5706863
:1010000010F00C0F09D0706800F00C00082840F0B8
:1010100087807068C00300F183803068800703D543
:101020002069012840F02E813068616920F0F800C5
:1010300040EAC10030602078000713D420784007D0
:101040002CD4E569002D00F01881706800F00C00C8
:10105000082840F0A780012D40F00481012002B053
:10106000BDE8F081A069002800F084800020C4F26F
:1010700042200121C0F88014FFF74AFC054600BF5A
:10108000706A800700F1B280FFF742FC401B022823
:10109000F6D9032002B0BDE8F08100BFF0695FEA35
:1010A000C00808D4F06940F08050F061F06900F0A9
:1010B00080500090009847F20007C4F2000738689B
:1010C000C00549D4386840F480703860FFF720FCD0
:1010D000054600BF3868C0053ED4FFF719FC401B29
:1010E0006428F7D9032002B0BDE8F081706800F0F1
:1010F0000C00082803D17068C0033FF576AF616823
:101100003068002900F00C81B1F5A02F00F00081BB
:10111000B1F5803F40F01A8140F480301CE100BFFF
:101120002069002840F20000C4F2422000F08880CC
:1011300001210160FFF7ECFB054600BF3068800726
:101140003FF572AFFFF7E4FB401B0228F6D90320FE
:1011500002B0BDE8F08100BFE168306A002900F00C
:101160009D80052900F09280012940F0AF8040F079
:101170000100B1E00020C4F242200021C0F8801438
:10118000FFF7C6FB054600BF706A80077FF556AFC4
:10119000FFF7BEFB401B0228F6D9032002B0BDE8D2
:1011A000F08100BF0027C4F2422700203866FFF715
:1011B000AFFB022D05460DD13068800140F1DE8085
:1011C000FFF7A6FB401B02284FF00300F4D902B042
:1011D000BDE8F081306880014FD5FFF799FB401BD7
:1011E00002284FF00300F5D9F1E700BF40F22000DC
:1011F000C2F20000006844F6D351C1F26201A0FBC4
:101200000101480A019000BF00BF0198411E00285B
:1012100001913FF413AF00BF0198411E00280191D6
:101220003FF40CAF00BF0198411E002801913FF42C
:1012300005AF00BF0198411E00280191E4D1FDE6F1
:1012400000210160FFF764FB054600BF306880079E
:101250007FF5F1AEFFF75CFB401B02284FF0030067
:10126000F4D9B4E77068216A00F480328A4209D167
:10127000616A00F47010884204D1002002B0BDE819
:10128000F08100BF012002B0BDE8F08140F0040011
:101290003062306A40F001001EE000BF20F0010023
:1012A0003062306A20F004003062FFF731FB0546FF
:1012B00041F28837306A800720D5FFF729FB401BB1
:1012C000B8424FF00300F5D981E700BF20F00100DC
:1012D0003062306A20F004003062FFF719FB0546E7
:1012E00041F28837306A800708D4FFF711FB401BB2
:1012F000B842F7D9032002B0BDE8F081B8F1000F81
:101300003FF59FAEF06920F08050F06199E600BF94
:1013100040F480203060306840F480301CE000BF32
:1013200020F480303060306820F480203060FFF797
:10133000EFFA0546306880037FF55EAEFFF7E8FA06
:10134000401B64284FF00300F4D940E720F48030BC
:101350003060306820F480203060FFF7D9FA05460D
:10136000306880033FF548AEFFF7D2FA401B64288F
:10137000F6D9032002B0BDE8F08100BF206AB0F5C5
:10138000803F05D17168A26821F40031114371607A
:101390007168626A21F4741111430843706001207E
:1013A0003866FFF7B5FA0446306880013FF565AF4F
:1013B000FFF7AEFA001B02284FF00300F4D906E74E
:1013C000411E0020B0EB116F1CBF012070474EF290
:1013D0001002CEF2000251604EF62351CEF200010F
:1013E000F0230B7007219060116070477047000078
:1013F0007047000090F83C20012A4FF0020236D0DE
:1014000010B580F83D200268D2F804E0D2F808C098
:101410000C682EF07003234340F2FF74C4F2000402
:10142000A24253600ADCB2F1804F13D040F2004375
:10143000C4F200039A420DD011E000BF42F600430F
:10144000C4F201039A4205D040F60003C4F200033F
:101450009A4204D149682CF080031943916001211C
:10146000002280F83D1080F83C20BDE81040104676
:1014700070470000002804BF0120704710B590F8A5
:101480003D1031B9002180F83C10044600F070F89E
:101490002046022180F83D10016840F2FF740B687D
:1014A000C4F2000442F6004CA142C4F2010C15DC67
:1014B000B1F1804F1AD040F20042C4F200029142D2
:1014C00014D0A14218DCB1F1804F1DD040F200428F
:1014D000C4F20002914217D01AE000BF614505D066
:1014E00040F60002C4F200029142EAD1826823F081
:1014F00070031343A142E6DD614505D040F60002CA
:10150000C4F20002914203D1026923F440731343F1
:10151000846923F08002D0F804E0C3682243614567
:101520000A60CB62C1F828E002D14269CCF83020D1
:1015300001224A610B69DB0703D00B6923F0010329
:101540000B6180F8462080F83E2080F83F2080F82C
:10155000402080F8412080F8422080F8432080F825
:10156000442080F8452080F83D20002010BD000078
:1015700080B586B040F200410068C4F2000100224C
:101580008842CDE904220392029201D006B080BDC8
:1015900041F21800C4F20200436843F002034360C2
:1015A000436803F002030193019B036843F00403C3
:1015B0000360006800F00400019001984020CDE92C
:1015C000020201F5823002A90492FFF793F81D2070
:1015D00000210022FFF7B2FB1D20FFF79DFB06B0A4
:1015E00080BD000090F83D1001291CBF012070470C
:1015F000022180F83D10006840F2FF71C4F2000142
:10160000884209DCB0F1804F12D040F20041C4F2B0
:10161000000188420CD012E042F60041C4F2010100
:10162000884205D040F60001C4F20001884206D18C
:10163000816801F00701062904BF00207047016896
:1016400041F00101016000207047000090F83C204B
:10165000012A4FF002026CD080B580F83D20D0F80E
:1016600000C04FF67772DCF8083023EA0202CCF8AB
:1016700008200B684F2B29DC1F2B45DD202B46D083
:10168000302B44D0402B40F0AF80D1F804E0C96843
:10169000DCF82030DCF8202022F00102CCF82020F9
:1016A000DCF8182022F0F00242EA011123F00A02CD
:1016B00042EA0E02CCF81810CCF82020DCF8081012
:1016C00041F0470121F0300128E000BF6F2B33DDEE
:1016D000B3F5005F74D0B3F5805F21D0702B40F07C
:1016E0008380D1E901E3C968DCF8082043EA0E03EE
:1016F00022F47F4243EA01211143CCF80810DCF8C0
:10170000081041F0770109E00BB1102B6CD1DCF827
:10171000081021F07001194341F00701CCF80810BE
:101720000022012180F83D10002180F83C10BDE826
:1017300080401046704700BF502B21D0602B53D102
:10174000D1F804E0C968DCF82030DCF8202022F071
:101750001002CCF82020DCF8182022F4704242EA73
:10176000013123F0A00242EA0E12CCF81810CCF896
:101770002020DCF8081041F0670121F01001CDE7CE
:10178000D1F804E0C968DCF82030DCF8202022F031
:101790000102CCF82020DCF8182022F0F00242EA06
:1017A000011123F00A0242EA0E02CCF81810CCF81C
:1017B0002020DCF8081041F0570121F02001ADE7AE
:1017C000D1E901E3C968DCF8082043EA0E0322F4FA
:1017D0007F4243EA01211143CCF80810DCF80810DD
:1017E00041F480419AE700BF01229AE7002804BF34
:1017F000012070472DE9F04F81B090F83D2042B9AB
:10180000002280F83C2004460D4600F09DF8294651
:101810002046022280F83D20026844F207059368C2
:1018200042F6004CAB43936040F2FF731468C4F27D
:1018300000039A42C4F2010C14DCB2F1804F19D0BB
:1018400040F20045C4F20005AA4213D09A4217DCC8
:10185000B2F1804F1CD040F20043C4F200039A4220
:1018600016D01AE0624505D040F60005C4F2000526
:10187000AA42EBD1856824F070042C439A42E7DD3C
:10188000624505D040F60003C4F200039A4204D139
:10189000036924F4407543EA050424F08003846955
:1018A000D0F804E0C568234362451360D562C2F8EE
:1018B00028E002D14369CCF830304FF0010EC2F875
:1018C00014E01569ED0703D0156925F001051561D0
:1018D00095689469D2F820C0D1E90038D1E9027B3B
:1018E00043EA050A8D694FF6FF7924EA090447EABD
:1018F00005254FF6FC47BD43D1E9077644EA0B04C2
:101900000B692C4344EA07242CF02207496944EA76
:10191000031347EA080743EA063347EA0111C2F80E
:1019200008A09361116280F846E080F83EE080F8FC
:101930003FE080F842E080F843E080F83DE000209E
:1019400001B0BDE8F08F000080B586B0014640F6DA
:101950000000C4F20100096800F51053002299420A
:101960000592CDE90322029202D006B080BD00BFED
:1019700041F21801C4F202010B6843F400630B60EA
:101980000B6803F400630193019B0B6843F00403AD
:101990000B60096801F00401019101994FF4407155
:1019A000CDE9021202A90492FEF7A4FE06B080BDA2
:1019B00080B590F83E2090F83F3090F842E090F8E3
:1019C00043C004290AD0B9B9012A4FF0010208BF67
:1019D000BEF1010F34D0104680BD00BF012B4FF087
:1019E000010208BFBCF1010FF5D1022180F83F10C0
:1019F00080F8431000681EE0012A4FF0010208BF82
:101A0000012BE8D1BEF1010FE5D1BCF1010FE2D10C
:101A1000022280F83E2080F83F2080F8422080F8A3
:101A2000432091B10068016A21F001010162016A5D
:101A300041F00101016210216FF0100209E000BFC6
:101A4000022180F83E1080F84210006801216FF0FA
:101A50000102036A1A400262026A114301620168CC
:101A6000002241F001010160104680BD40F21411D6
:101A7000C2F2000188420DD1087F022818BF7047CA
:101A800080B500F0C7FD40F22801C2F200014860B5
:101A9000BDE880407047000090F83C30012B04BF47
:101AA000022070474FEAB202032A00F28580F0B5A7
:101AB000DFE802F0025C203E0368D1E900C5D1F8FE
:101AC0000CE01C6A1A6A40F2FF7722F001021A62E7
:101AD0001A4652F8186FC4F20007BB4272DCB3F129
:101AE000804F7BD040F20047C4F20007BB4275D064
:101AF00090E000BF0768D1E900C5D1E902313C6A36
:101B00003A6A61F3071522F480723A623A4652F853
:101B10001C6F26F0F30645EA06014FEA5C0666F301
:101B2000492411603C62116821F00C01116066E0EB
:101B30000368D1E900E6D1E902C11C6A1A6A3602DB
:101B400022F480521A621A4652F81C5F4FF2FF07C5
:101B5000BE4325F4734561F30F364FEA5E0746EA4C
:101B6000050167F34D3411601C621EE00368D1E982
:101B700000E6D1E902C11C6A1A6A360222F010029C
:101B80001A621A4652F8185F4FF2FF07BE4325F457
:101B9000734561F30F3624F0A0040EF00A0746EAFD
:101BA000050144EA071711601F6211684FEA0C2310
:101BB00021F44061116022E00121002280F83C20E4
:101BC0000846704742F60047C4F20107BB4205D001
:101BD00040F60007C4F20007BB421BD126F0030603
:101BE000354324F00A070CF00A066EF30715374454
:101BF0009D611F629F6927F00C079F618B681168C8
:101C0000194311600021BDE8F040002280F83C201B
:101C10000846704746F00105E3E70000002804BFCE
:101C20000120704710B590F83D1031B9002180F8BF
:101C30003C10044600F070F82046022180F83D1068
:101C4000016840F2FF740B68C4F2000442F6004CD5
:101C5000A142C4F2010C15DCB1F1804F1AD040F260
:101C60000042C4F20002914214D0A14218DCB1F14A
:101C7000804F1DD040F20042C4F20002914217D0C2
:101C80001AE000BF614505D040F60002C4F2000230
:101C90009142EAD1826823F070031343A142E6DD4A
:101CA000614505D040F60002C4F20002914203D122
:101CB000026923F440731343846923F08002D0F84F
:101CC00004E0C368224361450A60CB62C1F828E0A2
:101CD00002D14269CCF8302001224A610B69DB074E
:101CE00003D00B6923F001030B6180F8462080F8D4
:101CF0003E2080F83F2080F8402080F8412080F886
:101D0000422080F8432080F8442080F8452080F865
:101D10003D20002010BD00007047000001B30429E1
:101D200008D0082919BF4FF0450C41234FF0440C4F
:101D3000402302E04FF0430C3F23C25C10F80C300C
:101D4000012A4FF0010208BF012B13D102220829FA
:101D500012D0042916D180F83F2080F843201CE0DF
:101D600090F83E2090F84230012A4FF0010208BF5F
:101D7000012B0DD01046704780F8402080F8442099
:101D80000BE000BF80F8412080F8452005E000BF4F
:101D9000022280F83E2080F84220006801F01F01F6
:101DA0000122036A02FA01F123EA01020262026AD5
:101DB000114340F2FF72C4F200029042016209DC5A
:101DC000B0F1804F12D040F20041C4F200018842CD
:101DD0000CD012E042F60041C4F20101884205D065
:101DE00040F60001C4F20001884206D1816801F08A
:101DF0000701062904BF00207047016841F0010176
:101E0000016000207047000031B3042908D0082980
:101E100019BF4FF0450C41234FF0440C402302E022
:101E20004FF0430C3F23C25C10F80C30012A4FF0F6
:101E3000010208BF012B5FD10222082922D0042908
:101E400050D180F83F2080F843204FEAB103032BA4
:101E50004FF0010220D94FE090F83E2090F8423038
:101E6000012A4FF0010208BF012B45D1022280F860
:101E70003E2080F842204FEAB103032B4FF00102CD
:101E80000AD939E080F8402080F844204FEAB103B5
:101E9000032B4FF001022FD844F2786C0068C0F693
:101EA000000C5CF823C0C36801F01F0143EA0C0377
:101EB000C360036A02FA01F123EA01020262026AC4
:101EC000114340F2FF72C4F200029042016215DC3D
:101ED000B0F1804F1ED040F20041C4F200018842B0
:101EE00018D01EE080F8412080F845204FEAB10369
:101EF000032B4FF00102CFD91046704742F6004144
:101F0000C4F20101884205D040F60001C4F200018C
:101F1000884206D1816801F00701062904BF00202C
:101F20007047016841F00101016000207047000026
:101F300070B504460068C5680669B10716D515F086
:101F4000020113D06FF00201016101212177806944
:101F5000800703D02046FFF789FD05E0204600F00A
:101F60008FF8204600F024FA00202077700719D55A
:101F700015F0040016D020686FF004010161022101
:101F80002177806910F4407F04D02046FFF76EFD72
:101F900006E000BF204600F073F8204600F008FA83
:101FA00000202077300717D515F0080014D02068DE
:101FB0006FF00801016104212177C069800703D017
:101FC0002046FFF753FD05E0204600F059F8204673
:101FD00000F0EEF900202077F00619D515F010007A
:101FE00016D020686FF01001016108212177C069C7
:101FF00010F4407F04D02046FFF738FD06E000BF14
:10200000204600F03DF8204600F0D2F9002020776D
:10201000F00718BF15F0010002D1300609D412E014
:1020200020686FF001010161204600F031FA3006AE
:1020300009D515F0800006D020686FF0800101619D
:102040002046FFF7D3F9700609D515F0400006D0F9
:1020500020686FF040010161204600F027FAB006C9
:1020600058BF70BD15F0200008D021686FF0200225
:1020700020460A61BDE87040FFF7BAB970BD0000A4
:102080007047000090F83C30012B04BF02207047DD
:102090004FEAB202032A00F2F1802DE9F043DFE8B3
:1020A00002F003A53B7500BF036842F600461D6AB7
:1020B0001A6AC4F2010622F001021A621A465C682A
:1020C00052F818CFB3428E68D1F800E025F002052F
:1020D00045EA06050CD1CE68D1E9057824F44074B0
:1020E00025F00C0526F004063C43354344EA080479
:1020F0002CF0730747EA0E075C609F614F6809691F
:102100005F631D629F6947F008079F619F6927F021
:1021100004079F61A6E000BF036842F600461D6AFF
:102120001A6AC4F2010622F480721A621A46D3F8BF
:1021300004C052F81CEFB3428E680C6825F4007599
:1021400045EA06250FD1CE68D1E90598360240F25E
:10215000FF4725F44065BE4335432CF4405748EA19
:10216000090647EA061C2EF073072743C3F804C08C
:10217000DF614F680969DF631D62DF6947F00807A7
:10218000DF61DF6927F00407DF616BE0036842F677
:102190000047D3F820C01A6AC4F2010722F4805223
:1021A0001A621A465C6852F81C5FD1F800E08E682B
:1021B000BB4204D14F6924F4804444EA87142CF4D0
:1021C000005747EA063725F4E64646EA0E265C60E5
:1021D000DE614E6809691E641F62DF6947F40067AB
:1021E000DF61DF6927F48067DF613AE0036842F668
:1021F00000461D6A1A6AC4F2010622F010021A6231
:102200001A46D3F804C052F8184FB3428E68D1F87A
:1022100000E025F0200545EA06150FD1CE68D1E98A
:1022200005986FF0400725F0C00507EA061635430C
:102230002CF4406748EA090647EA860C24F4E64491
:1022400044EA0E27C3F804C09F614F6809699F6381
:102250001D629F6947F400679F619F6927F480674B
:102260009F6109021368194311600021BDE8F04322
:10227000002280F83C200846704700BF0121002260
:1022800080F83C2008467047002804BF01207047B2
:1022900010B590F83D1031B9002180F83C1004468B
:1022A00000F070F82046022180F83D10016840F2ED
:1022B000FF740B68C4F2000442F6004CA142C4F261
:1022C000010C15DCB1F1804F1AD040F20042C4F28B
:1022D0000002914214D0A14218DCB1F1804F1DD010
:1022E00040F20042C4F20002914217D01AE000BF4F
:1022F000614505D040F60002C4F200029142EAD1E5
:10230000826823F070031343A142E6DD614505D0E6
:1023100040F60002C4F20002914203D1026923F4A4
:1023200040731343846923F08002D0F804E0C3684B
:10233000224361450A60CB62C1F828E002D14269BC
:10234000CCF8302001224A610B69DB0703D00B690E
:1023500023F001030B6180F8462080F83E2080F8CE
:102360003F2080F8402080F8412080F8422080F80B
:10237000432080F8442080F8452080F83D2000204C
:1023800010BD00000068B0F1804F18BF704781B0E9
:1023900041F21C00C4F20200016841F00101016039
:1023A000006800F001000090009801B07047000044
:1023B00070470000C1B1042908D0082914BF412288
:1023C0004022825C012A05D016E000BF3F22825CD9
:1023D000012A11D10222082910D0042914BF80F843
:1023E000412080F83F200BE090F83E20012A03D1E5
:1023F000022280F83E2003E00120704780F8402050
:10240000006801F01F010122036A8A4023EA0201E9
:102410000162036A42F64441C4F201011A43A1F188
:102420004403984202620FD040F2FF71C4F20001EF
:10243000884213DCB0F1804F1CD040F20041C4F25E
:102440000001884216D01CE00A6842F400420A608B
:1024500040F2FF71C4F200018842EBDD42F6004118
:10246000C4F20101884205D040F60001C4F2000127
:10247000884206D1816801F00701062904BF0020C7
:102480007047016841F001010160002070470000C1
:10249000704700004FEAB101032984BF0020704754
:1024A000006800EB8100406B70470000704700003F
:1024B000002804BF0120704710B5044690F8410081
:1024C00028B9002084F84000204600F063F824205A
:1024D00084F841002068D4E90212C36823F4005351
:1024E000C360036923F440531A430261D4E904230F
:1024F0001143C268194341F20C639A431143C1600E
:102500004169A26921F44071114343F60002C4F20B
:1025100001029042416103D0FEF72AFD02E000BFB4
:10252000FEF73AFDD4E90023192148439900B0FB96
:10253000F1F048F21F5CC5F2EB1CA0FB0C314FF62A
:102540009C734909C0F6FF7301FB0300322303EBC0
:102550000010A0FB0C03F02000EA531000EB011068
:10256000C3F34311084490601069202120F4904087
:102570001061506920F02A005061D06840F400508A
:10258000D0600020606484F8411084F842106063D9
:1025900010BD000070B586B040F60044C4F20104DE
:1025A0000068A4F54441002688420596CDE90366FB
:1025B000029601D006B070BD41F21800C4F20200CC
:1025C000416802AD41F480214160416801F48021FD
:1025D00001910199016841F00801016000682946F4
:1025E00000F00800019001984FF4806002900220F2
:1025F0000390032005902046FEF77CF84FF400601E
:10260000CDE90206204629460496FEF773F806B087
:1026100070BD0000B0B540F21414C2F200042046B0
:102620000021FFF737FF054620460421FFF732FF60
:10263000401BFDF71AFF49F6A053C4F2E003002245
:10264000FDF7FAFD48F28043C4F22E130022FDF795
:1026500065FE0023C3F6E0730022FDF7EDFDFDF7F4
:1026600042FFB0BD10B540F21414C2F2000420467F
:10267000FEF7B8FF20460021FFF750FB204604215B
:10268000FFF7C2FB40F60040C4F201004FF40071B6
:102690000022BDE81040FEF735B90000F0B581B06A
:1026A00040F60044C4F201044EF2180620464FF4EE
:1026B00000710122CEF20006FEF724F93768FEF71A
:1026C00027F9B9092C29054614D800BFFEF720F9CF
:1026D000A842FBD007F587303168884213D23168B1
:1026E000884210D2316888420DD231688842F3D3D3
:1026F00009E000BFA7F534673068874203D2FEF7D0
:1027000007F9A842F8D020464FF4007100220024B7
:10271000FEF7F8F840F21410C2F2000000684462BC
:1027200001B0F0BDFEE700002DE9F04383B00446A0
:1027300000680F4601680A9D0B9E41F4807199461E
:102740009046016020464FF0011100222B46009672
:1027500000F0ACF850B120680068C00544BF4FF4E9
:1027600000702064032003B0BDE8F083206807F008
:10277000FE0101610221C0F2010120462A463346D2
:1027800000F07AF920B1012003B0BDE8F08300BF6A
:1027900000200290206832464169029180692946F2
:1027A00002900298204600F0D3F958B1206C04281A
:1027B000E9D12068016841F400710160012003B093
:1027C000BDE8F0832068B9F1010F0AD04FEA182163
:1027D000016120462946324600F0BAF90028E5D1C9
:1027E00020685FFA88F10161002003B0BDE8F08342
:1027F00070B50368044653F8140F400711D40E4611
:10280000481C29D086BB00BF1868400527D4FEF7B6
:102810007FF8236853F8140F400737D5186840072E
:10282000F2D5002070BD00BF18684007F9D41868C1
:10283000400514D418684007F3D4186840050ED436
:1028400018684007EDD41868400508D41868400798
:102850004FF0000048BF70BD18684005E4D56FF424
:1028600080601860042012E0154603E053F8140F4E
:102870004007D6D418684005F1D4FEF749F8401B4C
:102880002368B042F2D958694007EFD420200021D4
:102890002022216384F83D2084F83E10226C1043EE
:1028A0002064012084F83C1070BD00002DE9F04147
:1028B000054600681E46144601F47F0201338FB2BC
:1028C00042D0DDF81880B2F5803F40F08780406943
:1028D0003840C01BB0FA80F04009844240F0C88004
:1028E0004EB924E040693840C01BB0FA80F040097E
:1028F000844240F0BD80FEF70BF8A0EB0801286889
:10290000B142EFD941693940C91BB1FA81F1490996
:102910008C42E7D19BE000BF40693840C01BB0FA51
:1029200080F0400984424FF0000040F0A280FDF7A3
:10293000EFFF286841693940C91BB1FA81F14909A3
:102940008C42E9D183E000BFB2F5803F24D100BFC3
:1029500041693940C91BB1FA81F149098C4240F003
:10296000878041693940C91BB1FA81F149098C421C
:1029700040F07E8041693940C91BB1FA81F14909B3
:102980008C4275D141693940C91BB1FA81F14909BD
:102990008C42DDD06CE000BF81693940C91BB1FABF
:1029A00081F149098C4263D181693940C91BB1FA6F
:1029B00081F149098C425BD181693940C91BB1FA67
:1029C00081F149098C4253D181693940C91BB1FA5F
:1029D00081F149098C42DFD04AE000BF806938406C
:1029E000C01BB0FA80F04009844241D146B923E0CF
:1029F00080693840C01BB0FA80F04009844237D16A
:102A0000FDF786FFA0EB08012868B142F0D9816983
:102A10003940C91BB1FA81F149098C42E8D116E06D
:102A200080693840C01BB0FA80F0400984424FF002
:102A3000000018BFBDE8F081FDF76AFF28688169D2
:102A40003940C91BB1FA81F149098C42E8D1002013
:102A50002021286385F83D1085F83E00296C41F05F
:102A60002001296485F83C000120BDE8F08100BF09
:102A70000020BDE8F0810000F0B581B00446006898
:102A80001D4643698FB203EA0701B94202D1002013
:102A900001B0F0BD4169164601323CD0490512D45F
:102AA0007EB300BFFDF734FF411B2068B14203D95C
:102AB00041693940B9422BD141693940B942E6D028
:102AC00041694905EED5016841F4007101606FF478
:102AD00080614161042000212022216384F83D208F
:102AE00084F83E10226C1043206484F83C100120CE
:102AF00001B0F0BD41693940B942C8D041694905CA
:102B0000E1D4FDF705FF206841693940B942F1D0B1
:102B10002020E0E741694905D5D441693940B942EF
:102B2000B5D041694905CED441693940B942AED0EA
:102B300041694905C7D441693940B942A7D04169C3
:102B40004905C0D441693940B942E3D19FE700004B
:102B500070B50368044653F8140F000611D40E46EE
:102B6000481C29D086BB00BF1868400527D4FDF754
:102B7000CFFE236853F8140F000637D518680006F7
:102B8000F2D5002070BD00BF18680006F9D418689F
:102B9000400514D418680006F3D4186840050ED414
:102BA00018680006EDD41868400508D418680006B7
:102BB0004FF0000048BF70BD18684005E4D56FF4C1
:102BC00080601860042012E0154603E053F8140FEB
:102BD0000006D6D418684005F1D4FDF799FE401BD5
:102BE0002368B042F2D958690006EFD420200021B2
:102BF0002022216384F83D2084F83E10226C10438B
:102C00002064012084F83C1070BD000070B586B0CF
:102C1000002541F21800CDE90455CDE90255C4F272
:102C20000200016840F6004441F0100101600168B3
:102C3000C4F2010401F01001019101990168002220
:102C400041F020010160016801F02001019101992A
:102C5000016841F004010160016801F00401019183
:102C60000199016841F00801016000684FF40851C2
:102C700000F00800019001982046FDF743FE4FF454
:102C8000005001260290CDE90365022002AD0590B7
:102C900020462946FDF72EFD4FF40070CDE90206CF
:102CA00003200590204629460496FDF723FD06B033
:102CB00070BD000080B540F2300045F20041C2F224
:102CC0000000C4F2000148F2A06200234FF4804CDF
:102CD000C0F2010280E80E00C0E9033CC0E9053300
:102CE000C0E90733FDF71AFE002808BF80BDBDE824
:102CF0008040FDF7E5BC000010B58CB040F28400C8
:102D000042F600410024C2F20000C4F20101C0E911
:102D1000001401214FF6FF72CDE90314CDE905142B
:102D2000CDE9091403A9CDE90044C0E90242C0E994
:102D300004448461CDE907440B94FEF757FD002855
:102D400018BFFDF7BDFC40F28400C2F200006946E6
:102D5000CDE90044FEF74EFB002818BFFDF7B0FC9C
:102D60000CB010BD10B590B040F2CC000021C2F202
:102D700000004FF08042472340F2E734CDE90811CC
:102D8000CDE90611CDE90411C0E90023C0E9021420
:102D900001618161FFF778FA002818BFFDF790FC08
:102DA00040F2CC00C2F2000008A9FEF723FB002885
:102DB00018BFFDF785FC602001901020029040F2C2
:102DC000CC000024C2F2000001A900220394059463
:102DD000FFF758F9002818BFFDF772FC40F2CC004D
:102DE000C2F2000001A904220294FFF74BF9002867
:102DF00018BFFDF765FC40F2CC04C2F2000401A943
:102E000020460822FFF73EF9002818BFFDF758FCBE
:102E100021680020B1F1804FCDE90E000D900C909B
:102E200002D010B010BD00BF41F21800C4F2020081
:102E3000016841F00401016000680CA900F0040081
:102E40000B900B9807200C9002200D900F9040F6ED
:102E50000000C4F20100FDF74DFC10B010BD0000F1
:102E600010B58AB040F214100021C2F2000040F206
:102E700000424FF6FF740991CDE90711CDE9041125
:102E8000CDE90211CDE90011C4F200024723C0E9E7
:102E9000021401618021C0E900238161FEF7EAFA92
:102EA000002818BFFDF70CFC4FF48050069040F24C
:102EB0001410C2F2000006A9FEF7C8FB002818BFD4
:102EC000FDF7FEFB40F21410C2F20000FEF7A6FE72
:102ED000002818BFFDF7F4FB40F214100024C2F2E2
:102EE000000004A9CDE90444FEF784FA002818BFC5
:102EF000FDF7E6FB0120CDE9010440F21410C2F217
:102F000000006946002200940394FEF7C5FD0028E6
:102F100018BFFDF7D5FB0220CDE9000040F21410E8
:102F2000C2F2000069460422FEF7B6FD002818BF71
:102F3000FDF7C6FB0AB010BD80B540F25C1044F648
:102F40000001C2F20000C4F2000100234FF00C0C9B
:102F50004FF4E13280E80E00C0E90333C0E905C355
:102F6000C361FFF7A5FA002808BF80BDBDE8804017
:102F7000FDF7A6BBFEE70000FEE700002DE9F04FDD
:102F800085B040F2300400254FF480760127C2F26C
:102F900000040DF1120B0DF113084FF0000900BFF2
:102FA00049F0B0008DF8100004A8CDE900072046D4
:102FB0007821002201230296FDF762FD0DF1110038
:102FC000CDE9000720467821002201238DF8115019
:102FD0000296FDF755FD10208DF81200204678214D
:102FE00000220123CDE900B70296FDF749FD4FF01D
:102FF000000A00BF20467821402201238DF813509B
:10300000CDE900870296FDF73BFD0AF101004FFA7A
:1030100080FABAF1FF3FEDDCB9F1070F09F10109C0
:10302000BED305B0BDE8F08F2DE9F04184B0C820D3
:10303000FDF74CFB40F20806C2F20006307840F281
:103040003004C2F200048DF80F004FF4807801279D
:103050000DF10F052046782100220123CDE900570C
:10306000CDF80880FDF70CFD707878218DF80F0001
:10307000204600220123CDE90057CDF80880FDF756
:10308000FFFCB07878218DF80F0020460022012344
:10309000CDE90057CDF80880FDF7F2FCF0787821F3
:1030A0008DF80F00204600220123CDE90057CDF80E
:1030B0000880FDF7E5FC307978218DF80F00204677
:1030C00000220123CDE90057CDF80880FDF7D8FC98
:1030D000707978218DF80F00204600220123CDE978
:1030E0000057CDF80880FDF7CBFCB07978218DF83A
:1030F0000F00204600220123CDE90057CDF80880BB
:10310000FDF7BEFCF07978218DF80F0020460022F3
:103110000123CDE90057CDF80880FDF7B1FC307AE6
:1031200078218DF80F00204600220123CDE90057B9
:10313000CDF80880FDF7A4FC707A78218DF80F0097
:10314000204600220123CDE90057CDF80880FDF785
:1031500097FCB07A78218DF80F00204600220123D9
:10316000CDE90057CDF80880FDF78AFCF07A782188
:103170008DF80F00204600220123CDE90057CDF83D
:103180000880FDF77DFC307B78218DF80F0020460C
:1031900000220123CDE90057CDF80880FDF770FC2F
:1031A000707B78218DF80F00204600220123CDE9A5
:1031B0000057CDF80880FDF763FCB07B78218DF8CF
:1031C0000F00204600220123CDE90057CDF80880EA
:1031D000FDF756FCF07B78218DF80F002046002289
:1031E0000123CDE90057CDF80880FDF749FC307C7C
:1031F00078218DF80F00204600220123CDE90057E9
:10320000CDF80880FDF73CFC707C78218DF80F002C
:10321000204600220123CDE90057CDF80880FDF7B4
:103220002FFCB07C78218DF80F002046002201236E
:10323000CDE90057CDF80880FDF722FCF07C78211D
:103240008DF80F00204600220123CDE90057CDF86C
:103250000880FDF715FC307D78218DF80F002046A1
:1032600000220123CDE90057CDF80880FDF708FCC6
:10327000707D78218DF80F00204600220123CDE9D2
:103280000057CDF80880FDF7FBFBB07D78218DF865
:103290000F00204600220123CDE90057CDF8088019
:1032A000FDF7EEFB04B0BDE8F08100002DE9F04F22
:1032B0008BB047B2C0F3C010DDF85090203A01EB5C
:1032C000400427EAE7711027A4F1500047EA1116DD
:1032D00001F00F05102BD7B240F0B280049440F2F9
:1032E00030048DF81D004FF001080DF11D00C2F2F1
:1032F00000044FF4807BCDE90008204678210022AD
:103300000123CDF808B0FDF7BBFB0DF11E00CDE9A0
:103310000008204678210022012305968DF81E60C2
:10332000CDF808B0FDF7ACFB0DF11F00CDE90008AA
:10333000204678210022012306958DF81F50CDF8F4
:1033400008B0FDF79DFB44F286063D01C0F600067D
:10335000705DB9F1000F039500F0048140F2300474
:10336000C043C2F200048DF820000DF1200A20466F
:10337000782140220123CDE900A8CDF808B0FDF75F
:103380007FFB77197878BD78C04397F803903E7932
:103390008DF820002046782140220123CDE900A8A5
:1033A000CDF808B0FDF76CFBE8438DF8200020460F
:1033B000782140220123CDE900A8CDF808B0FDF71F
:1033C0005FFB6FEA09008DF820002046782140223B
:1033D0000123CDE900A8CDF808B0FDF751FBF0437B
:1033E0008DF820002046782140220123CDE900A855
:1033F000CDF808B0FDF744FB78797821C0438DF80B
:103400002000204640220123CDE900A8CDF808B0D5
:10341000FDF736FBB8797821C0438DF820002046AF
:1034200040220123CDE900A8CDF808B0FDF728FB24
:10343000F879CDE900A8C0438DF820002046F8E0D7
:1034400040F230048DF827004FF0010A0DF12700FB
:10345000C2F200044FF48078CDE9000A20467821BA
:1034600000220123CDF80880FDF70AFB0AA8CDE968
:10347000000A20467821002201238DF82860CDF82B
:103480000880FDF7FDFA0DF12900CDE9000A20467C
:103490007821002201238DF82950CDF80880FDF70E
:1034A000EFFA43F65E6607EB4705C0F6000616F82E
:1034B0001500B9F1000F00F0718140F23004C043F3
:1034C000C2F200048DF82A000DF12A0B2046782163
:1034D00040220123CDE900BACDF80880FDF7D0FAEB
:1034E00006EB45056878AF78C043EE7895F8049010
:1034F0008DF82A002046782140220123CDE900BA28
:10350000CDF80880FDF7BCFAF8438DF82A00204674
:10351000782140220123CDE900BACDF80880FDF7DB
:10352000AFFAF0438DF82A0020467821402201238B
:10353000CDE900BACDF80880FDF7A2FA6FEA0900DC
:103540008DF82A002046782140220123CDE900BAD7
:10355000CDF80880FDF794FA6879C0438DF82A0009
:10356000CEE100BF40F23009C2F200098DF821001F
:103570000DF1210A4846782140220123CDE900A817
:10358000CDF808B0FDF77CFA77197878BD78FC782B
:103590003E798DF821004846782140220123CDE96B
:1035A00000A8CDF808B0FDF76BFA48467821402214
:1035B00001238DF82150CDE900A8CDF808B0FDF722
:1035C0005FFA48467821402201238DF82140CDE959
:1035D00000A8CDF808B0FDF753FA484678214022FC
:1035E00001238DF82160CDE900A8CDF808B0FDF7E2
:1035F00047FA787978218DF8210048464022012346
:10360000CDE900A8CDF808B0FDF73AFAB8797821ED
:103610008DF82100484640220123CDE900A8CDF8CD
:1036200008B0FDF72DFAF879CDE900A88DF8210052
:103630004846782140220123CDF808B0FDF720FA52
:10364000049840F230044F388DF822004FF0010A00
:103650000DF12200C2F200044FF48078CDE9000A97
:103660002046782100220123CDF80880FDF708FAD2
:10367000059878218DF823000DF12300CDE9000A8B
:10368000204600220123CDF80880FDF7F9F90698BD
:1036900078218DF8240009A8CDE9000A20460022EF
:1036A0000123CDF80880FDF7EBF9039844F2860179
:1036B000C0F600010F181499387A002900F0BC8078
:1036C00040F23004C043C2F200048DF825000DF131
:1036D000250B2046782140220123CDE900BACDF800
:1036E0000880FDF7CDF9787ABD7AC043FE7A97F865
:1036F0000C908DF825002046782140220123CDE949
:1037000000BACDF80880FDF7BBF9E8438DF8250035
:103710002046782140220123CDE900BACDF8088067
:10372000FDF7AEF9F0438DF82500204678214022C0
:103730000123CDE900BACDF80880FDF7A1F96FEAC1
:1037400009008DF825002046782140220123CDE98B
:1037500000BACDF80880FDF793F9787B7821C04353
:103760008DF82500204640220123CDE900BACDF88E
:103770000880FDF785F9B87B7821C0438DF82500D6
:10378000204640220123CDE900BACDF80880FDF79C
:1037900077F9F87BC0438DF82500B1E040F23004A2
:1037A000C2F200048DF82B000DF12B0B204678217E
:1037B00040220123CDE900BACDF80880FDF760F979
:1037C00006EB45056878AE78EF7895F804908DF8AB
:1037D0002B002046782140220123CDE900BACDF804
:1037E0000880FDF74DF920467821402201238DF80D
:1037F0002B60CDE900BACDF80880FDF741F92046ED
:103800007821402201238DF82B70CDE900BACDF844
:103810000880FDF735F920467821402201238DF8F4
:103820002B90CDE900BACDF80880FDF729F9687929
:103830008DF82B0064E000BF40F23004C2F20004B7
:103840008DF826000DF1260B204678214022012319
:10385000CDE900BACDF80880FDF712F9787ABE7A82
:10386000FD7A97F80C908DF82600204678214022AA
:103870000123CDE900BACDF80880FDF701F9204613
:103880007821402201238DF82660CDE900BACDF8D9
:103890000880FDF7F5F820467821402201238DF8B5
:1038A0002650CDE900BACDF80880FDF7E9F82046AA
:1038B0007821402201238DF82690CDE900BACDF879
:1038C0000880FDF7DDF8787B78218DF8260020460A
:1038D00040220123CDE900BACDF80880FDF7D0F8E9
:1038E000B87B78218DF82600204640220123CDE9BF
:1038F00000BACDF80880FDF7C3F8F87B8DF82600F4
:103900002046782140220123CDE900BACDF8088075
:10391000FDF7B6F80BB0BDE8F08F00002DE9F047D9
:1039200082B092461278002A4BD0DDF82880994662
:103930000D46064608270C2B4FF0000408BF06274B
:1039400016D100BFF0B2E9B2D2B20C23CDF800809C
:10395000FFF7ACFC3E44F0B201347A28E0B288BFF5
:1039600001351AF8002088BF0026002AEAD128E095
:10397000B9F1100F16D100BFF0B2E9B2D2B21023E4
:10398000CDF80080FFF792FC3E44F0B20134782875
:10399000E0B288BF01351AF8002088BF0026002A4F
:1039A000EAD10EE0F0B2D2B229464B46CDF8008003
:1039B000FFF77CFC0134E0B21AF800203E44002AF4
:1039C000F0D102B0BDE8F0872DE9F04F8BB00A913D
:1039D0000DF1500B9BE812081F460491079010460A
:1039E00000211546FCF717FD06460028BA4625F0CB
:1039F00000401CBF01260AF1010A03950290FCF762
:103A000045FD80466008099408905FEA0A6059D035
:103A1000B819069002380590002042F210761EE098
:103A20000121B8FBF1F14CF6CD42CCF6CC42A1FB22
:103A30000223DA0802EB8202A1EB4201DDE907234F
:103A400041F0300100FB0320CAB2DDE90931C0B208
:103A5000CDF800B0FFF72AFCBD42484632D200F153
:103A600001095FFA89F55FFA8AF7AF42D8D0059A63
:103A7000C143121AD2B2032A069A02EB010C01D2F8
:103A8000012109E00CF0FC03002201210432D4B230
:103A90009C4206FB01F1F9D11CF00302C1D0012ABE
:103AA00004D101EB81014900BBE700BF4FF47A73F9
:103AB0004B43022A4FF0640208BF01FB02F3194690
:103AC000AFE700BFDDE90701099B01FB0A000A9986
:103AD000C0B22E22CDF818B0CDF800B0FFF7E6FB4B
:103AE0004046FCF7B4FC01460298FCF76DFB049ECF
:103AF000002E00F08B800746042E06F0030103D24F
:103B00000A22A9B91FE000BF06F0FC020023012031
:103B100042F2107604330546D8B2904205FB06F017
:103B2000F8D148F2A062C0F20102049E6A4351B18A
:103B3000012901D1104606E06420504302EB8203C4
:103B4000022908BF5800FCF78BFC01463846FCF7F9
:103B500041FBFCF79BFC002E58D08146079842F2AF
:103B6000107800F1050BB01E059000201FE000BF8B
:103B70000121B9FBF1F14CF6CD42CCF6CC42A1FBD0
:103B80000223DA0802EB8202A1EB4201089A5044B8
:103B900000FB02B041F03001CAB2DDE90931069FF5
:103BA000C0B20097FFF782FBB54220462ED2441CDC
:103BB000E5B2AE42DCD0059AC143121AD2B2032A52
:103BC00006EB010202D201210AE000BF02F0FC0371
:103BD000002701210437FEB29E4201FB08F1F9D112
:103BE000049E12F00302C4D0012A03D101EB81012B
:103BF0004900BEE74FF47A734B43022A4FF0640248
:103C000008BF01FB02F31946B3E700BF0398002188
:103C1000FCF70FFC00281CBF0BB0BDE8F08F069F1F
:103C200007980A99099B2D2214970BB0BDE8F04F15
:103C3000FFF73CBB7047000070470000FDF704B879
:103C40007047000040F21410C2F20000FEF770B995
:103C5000FEE7000092B0FDF705F800240120CDE951
:103C60000D44CDE90B4408900C904FF4E0104FF454
:103C700080310225119008A8CDE90914CDE90F5132
:103C8000FDF79EF920B1EFF3108072B6FEE700BF9A
:103C90000F20CDE903054FF48060CDE9060403A8A9
:103CA00002210594FDF786F820B1EFF3108072B67B
:103CB000FEE700BFFEF7AAFFFFF754F8FFF7D0F8C2
:103CC000FEF7F8FFFFF718F8FFF736F940F2CC04DB
:103CD000C2F20004204600214FF0000AFEF76AFB02
:103CE00020460421FEF766FB20460821FEF762FB12
:103CF0002068C0F834A0FFF797F9FFF73FF9FEF707
:103D0000B1FC20683C21C0F838A0C0F83CA040F2CB
:103D10008400C2F20000FDF74BFE40F2280B0027A2
:103D20000026C2F2000BC4F24827C4F2A0164EE0EF
:103D300040F60040C4F201004FF400510022FCF7AD
:103D4000E1FD40463946FCF745FA0025CBF6807583
:103D50002946FCF7E7F9FCF799FB40F2CC04C2F2E4
:103D600000042168ABF800004863022000900C209A
:103D700001900020002142460223CDF808A0FFF761
:103D800023FE2420002127A20C23CDF800A0FFF75A
:103D9000C5FD246840463146C4F838A0FCF71AFA3D
:103DA0002946FCF7BFF9FCF78AFB814640463946B5
:103DB000FCF731FB002808BF814640F28400C4F8BC
:103DC0003C90C2F200000068416AC0F824A0FEF7EF
:103DD00065FC3220FCF77AFCDBF804103846FCF76F
:103DE000F3F90021C4F2A0018046FCF714FB00287F
:103DF0001CBF40F20008C4F2A00840463146FCF760
:103E0000FCFA002894D140F60040C4F201004FF4BF
:103E100000510122FCF776FD00250020CBF68075CD
:103E20009BE700BF636D000002E008C8121F08C1D5
:103E3000002AFAD170477047002001E001C1121F2B
:103E4000002AFBD1704700000000000000000102C2
:103E50000304060708090000000001020304000033
:103E6000000000000000002F000000000700070015
:103E700000147F147F1400242A7F2A120062640831
:103E800013230036495522500000050300000000AE
:103E90001C224100000041221C000014083E0814AE
:103EA0000008083E0808000000A06000000808089C
:103EB0000808000060600000002010080402003EB6
:103EC0005149453E0000427F400000426151494651
:103ED000002141454B31001814127F100027454541
:103EE0004539003C4A494930000171090503003653
:103EF0004949493600064949291E00003636000066
:103F0000000056360000000814224100001414146A
:103F10001414000041221408000201510906003265
:103F20004959513E007C1211127C007F49494936A3
:103F3000003E41414122007F4141221C007F49490E
:103F40004941007F09090901003E4149497A007F42
:103F50000808087F0000417F4100002040413F01E8
:103F6000007F08142241007F40404040007F020C47
:103F7000027F007F0408107F003E4141413E007FE8
:103F800009090906003E4151215E007F09192946B1
:103F90000046494949310001017F0101003F40408D
:103FA000403F001F2040201F003F4038403F00633B
:103FB000140814630007087008070061514945435D
:103FC00000007F41410000552A552A55000041411B
:103FD0007F00000402010204004040404040000015
:103FE00001020400002054545478007F48444438AF
:103FF00000384444442000384444487F0038545436
:10400000541800087E0901020018A4A4A47C007FB3
:10401000080404780000447D4000004080847D0056
:10402000007F102844000000417F4000007C0418FD
:104030000478007C0804047800384444443800FCC8
:10404000242424180018242418FC007C08040408E4
:1040500000485454542000043F444020003C404059
:10406000207C001C2040201C003C4030403C004490
:1040700028102844001CA0A0A07C004464544C4498
:1040800014141414141400000000000000000000B8
:10409000000000000000000000F800000000000028
:1040A00000333000000000100C06100C0600000069
:1040B00000000000000040C07840C0784000043F8D
:1040C00004043F040400007088FC0830000000185D
:1040D00020FF211E0000F008F000E0180000002181
:1040E0001C031E211E0000F00888700000001E2125
:1040F00023241927211010160E00000000000000D4
:10410000000000000000000000E0180402000000B1
:1041100000071820400000020418E00000000040E2
:10412000201807000000404080F08040400002025C
:10413000010F01020200000000F000000000010178
:10414000011F01010100000000000000000080B01C
:1041500070000000000000000000000000000001EE
:104160000101010101010000000000000000003019
:1041700030000000000000000000806018040060B3
:1041800018060100000000E010080810E000000F11
:10419000102020100F00001010F800000000002078
:1041A000203F2020000000700808088870000030C0
:1041B0002824222130000030088888483000001868
:1041C000202020110E000000C02010F80000000781
:1041D0000424243F240000F80888880808000019F7
:1041E000212020110E0000E0108888180000000F28
:1041F000112020110E0000380808C83808000000FF
:10420000003F000000000070880808887000001C53
:10421000222121221C0000E010080810E00000000C
:10422000312222110F00000000C0C0000000000079
:10423000003030000000000000800000000000009E
:104240008060000000000000804020100800000195
:104250000204081020004040404040404000040458
:104260000404040404000008102040800000002022
:10427000100804020100007048080808F00000005F
:10428000003036010000C030C828E810E0000718F0
:10429000272423140B000000C038E0000000203C5D
:1042A00023020227382008F8888888700000203F01
:1042B000202020110E00C030080808083800071818
:1042C00020202010080008F808080810E000203F0F
:1042D000202020100F0008F88888E8081000203FF0
:1042E00020202320180008F88888E8081000203FC4
:1042F000200003000000C03008080838000007183C
:104300002020221E020008F808000008F808203FBC
:10431000210101213F20000808F8080800000020C2
:10432000203F2020000000000808F8080800C08096
:1043300080807F00000008F888C028180800203F0F
:1043400020012638200008F8080000000000203F67
:1043500020202020300008F8F800F8F80800203F5E
:10436000003F003F200008F830C00008F808203F58
:10437000200007183F00E01008080810E0000F10A8
:10438000202020100F0008F808080808F000203F3F
:10439000210101010000E01008080810E0000F18DA
:1043A000242438504F0008F8888888887000203FFF
:1043B0002000030C302000708808080838000038FE
:1043C000202121221C00180808F808081800000005
:1043D000203F2000000008F808000008F808001F2F
:1043E000202020201F000878880000C8380800001E
:1043F00007380E010000F80800F80008F800033C38
:104400000700073C030008186880806818082030FF
:104410002C03032C30200838C800C83808000000DE
:10442000203F2000000010080808C8380800203885
:10443000262120201800000000FE020202000000D9
:10444000007F40404000000C30C000000000000031
:1044500000010638C00000020202FE000000004019
:1044600040407F000000000004020202040000003F
:10447000000000000000000000000000000080803C
:104480008080808080800002020400000000000024
:104490000000000000000000808080800000001903
:1044A000242222223F2008F8008080000000003FE4
:1044B000112020110E000000008080800000000EFE
:1044C000112020201100000000808088F800000EDC
:1044D000112020103F200000808080800000001FFD
:1044E000222222221300008080F088888818002071
:1044F000203F202000000000808080808000006B32
:1045000094949493600008F8008080800000203F1D
:10451000210000203F20008098980000000000202B
:10452000203F20200000000000809898000000C07C
:104530008080807F000008F8000080808000203F9D
:1045400024022D302000000808F8000000000020A0
:10455000203F202000008080808080808000203FDD
:1045600020003F20003F8080008080800000203FAE
:10457000210000203F200000808080800000001F7C
:10458000202020201F00808000808000000080FF0D
:10459000A12020110E000000008080808000000E0D
:1045A000112020A0FF80808080008080800020205B
:1045B0003F212000010000008080808080000033C7
:1045C000242424241900008080E080800000000062
:1045D000001F202000008080000000808000001F5D
:1045E000202020103F2080808000008080800001FB
:1045F0000E300806010080800080008080800F302F
:104600000C030C300F0000808000808080000020B0
:10461000312E0E31200080808000008080808081DB
:104620008E7018060100008080808080800000214C
:10463000302C2221300000000000807C02020000AB
:104640000000003F40400002027C8000000000406B
:10465000403F0000000000000000FF0000000000DC
:104660000000FF000000010202030405060708091C
:104670000A0B0C0D0E0F10100200000004000000C9
:104680000800000010000000FDFFFFFFFBFFFFFF20
:10469000F7FFFFFFEFFFFFFFFFFDFFFFFFFBFFFF48
:1046A000FFF7FFFFFFEFFFFFC846000800000020F4
:1046B00028000000283E0008F046000828000020DE
:1046C00080050000383E00080100000010000000D6
:1046D000AED580A83FD30040A1C8DA1281CFD9F16E
:1046E000DB40A4A68D14AF0000127A000000000089
:04000005080000ED02
:00000001FF
